:1000000054C000006FC000006DC000006BC0000055
:1000100069C0000067C0000065C0000063C0000048
:1000200061C000005FC000005DC000005BC0000058
:1000300059C000009EC2000055C0000053C000001F
:1000400051C000004FC000004DC000004BC0000078
:1000500049C0000047C0000045C0000043C0000088
:1000600041C000003FC000003DC000003BC0000098
:1000700039C0000037C0000035C0000033C00000A8
:1000800031C000002FC000002DC0000005A84CCDDD
:10009000B2D44EB93836A9020C50B9918688083CC2
:1000A000A6AAAA2ABE000000803F11241FBECFEFDF
:1000B000D0E4DEBFCDBF11E0A0E0B1E0E0E8FCE0BD
:1000C00000E00BBF02C007900D92A430B107D9F732
:1000D00020E2A4E0B1E001C01D92AC35B207E1F727
:1000E00093D2CCC58DCFE1ECF0E080818861808334
:1000F0008EE08093C2008FE18093C4001092C5000F
:1001000008958AE08093810084E690E090938900CE
:100110008093880082E080936F0010928500109297
:1001200084008091000190910101A0910201B091A1
:10013000030180930A0190930B01A0930C01B093EB
:100140000D018FB780688FBF08952F923F924F9215
:100150005F926F927F928F929F92AF92BF92CF9257
:10016000DF92EF92FF920F931F93CF93DF9300D014
:1001700000D0CDB7DEB72C01362F272F1A0180E231
:100180009EE4B20161D569837A83E62EF72EE114ED
:10019000F10409F442C0032F122F812C912C540139
:1001A0001C821B82612C712C0F2EF3E3CF2EDC2CD2
:1001B000F02DC301B20186D3A50194016DD420E0D6
:1001C00030E040E85FE381D220E030E040E050E4FE
:1001D000BDD320E030E040E85FE376D249D59C0112
:1001E0002C9DC0012D9D900D3C9D900D1124F8017A
:1001F000819391938F0127E137EB41E558E3C501E6
:10020000B40163D24B015C012B813C812F5F3F4FD6
:100210003C832B832E153F0561F62981F101208354
:100220003A8131830F900F900F900F90DF91CF9113
:100230001F910F91FF90EF90DF90CF90BF90AF9004
:100240009F908F907F906F905F904F903F902F90F6
:1002500008950F931F93CF93DF939C01D62FC72F41
:100260008A0180E29EE4B901EFD49B01611571051A
:10027000B1F0DB01B695A795ED2FFC2F80E090E063
:10028000C3E3D3E38A179B0718F4D183C08302C06A
:1002900011821082019632968217930799F7F8011E
:1002A00071836083DF91CF911F910F9108954F92D9
:1002B0005F926F927F928F929F92AF92BF92CF92F6
:1002C000DF92EF92FF920F931F93CF93DF93EC0196
:1002D0008B014A01BC0180E090E0F4D29B01AC01AB
:1002E00060E070E080E89FE354D29B01AC0168EDD0
:1002F0007FE089EC90E44DD22B013C0180E29EE44A
:10030000BE01A2D45B016115710569F1E801CB0161
:10031000880F991F080F191FC12CD12C7601A70136
:100320009601C301B201B8D31AD420E030E040E016
:100330005FE3B2D320E030E040E05FE3C6D120E0ED
:1003400030E048E452E4A8D38CD26993799327E152
:1003500037EB41E558E3C701B601B7D16B017C012A
:10036000C017D107E1F6F401B182A082DF91CF91ED
:100370001F910F91FF90EF90DF90CF90BF90AF90C3
:100380009F908F907F906F905F904F900895411550
:10039000510571F0FB01A82FB92F440F551F640FB1
:1003A000751F819191918D939D93E617F707C9F77A
:1003B00008952F923F924F925F926F927F928F9209
:1003C0009F92AF92BF92CF92DF92EF92FF920F93E4
:1003D0001F93CF93DF93CDB7DEB72A970FB6F8946C
:1003E000DEBF0FBECDBF682E792E4B015A010983A7
:1003F0001A832B833C83A901980160E070E080E8B8
:100400009FE362D19B01AC01C701B601C2D1A70134
:1004100096015BD16D837E838F839887A114B1048D
:1004200009F451C09A868986062D172DAA0CBB1C8B
:1004300014012A0C3B1C812C912C54017501640180
:10044000E985FA8561917191FA87E98780E090E00A
:1004500039D2A701960138D12B013C01A5019401A5
:10046000C701B60131D12D813E814F81588514D30A
:100470009B01AC01C301B20128D129813A814B8192
:100480005C810AD39B01AC01C701B6011ED16B018F
:100490007C01A501940118D129813A814B815C81AD
:1004A000FBD29B01AC01C501B4010FD14B015C0132
:1004B000DDD1F801619371938F0189859A85821549
:1004C000930509F0BDCF2A960FB6F894DEBF0FBE94
:1004D000CDBFDF91CF911F910F91FF90EF90DF90F3
:1004E000CF90BF90AF909F908F907F906F905F90D4
:1004F0004F903F902F900895AF92BF92CF92DF928E
:10050000EF92FF920F931F93CF93DF93DB01EA01EA
:1005100059016801FC019081913049F018F0923046
:1005200059F018C0A801BE01CD010FDE13C0A8010B
:10053000BE01CD018EDE0EC0A801BE01CD01B7DE29
:10054000E12CF12C06E616E626E63FE3A601BE0105
:10055000C5012FDFA601BE01C50119DFDF91CF91D3
:100560001F910F91FF90EF90DF90CF90BF90AF90D1
:1005700008951F920F920FB60F9211240BB60F928F
:100580002F933F938F939F93EF93FF93E0910601F7
:10059000F0910701EE0FFF1FE25FFE4F8081918116
:1005A0009C01220F331F220F331F820F931F809352
:1005B00004019093050188B98091040185B9809167
:1005C000060190910701019690930701809306011F
:1005D0002091060130910701809108019091090155
:1005E0002817390721F41092070110920601FF9194
:1005F000EF919F918F913F912F910F900BBE0F9094
:100600000FBE0F901F9018958FEF84B915B887B95A
:1006100018B81AB88BB9109207011092060182E03F
:100620008093B61008E011E02EE031E04BEB50E192
:1006300062E370E086EB90E15FDF4091080150914A
:100640000901C12CD12C760104EA10E72DE73FE324
:100650006BEB70E18EE091E0ACDE409108015091CF
:10066000090104EA10E72DE73FE36BEB70E18EE050
:1006700091E09FDE409108015091090104EA10E7E2
:100680002DE73FE36BEB70E18EE091E092DE40916D
:1006900008015091090104EA10E72DE73FE36BEBF5
:1006A00070E18EE091E085DE4091080150910901F2
:1006B00004EA10E72DE73FE36BEB70E18EE091E099
:1006C00078DE11DD1EDDFFCF5058BB27AA270ED0E4
:1006D000A9C19AD130F09FD120F031F49F3F11F49D
:1006E0001EF48FC10EF4E095E7FB77C1E92FABD183
:1006F00080F3BA17620773078407950718F071F43F
:100700009EF5C3C10EF4E0950B2EBA2FA02D0B0160
:10071000B90190010C01CA01A0011124FF27591B46
:1007200099F0593F50F4503E68F11A16F040A22F4C
:10073000232F342F4427585FF3CF469537952795BD
:10074000A795F0405395C9F77EF41F16BA0B620BBC
:10075000730B840BBAF09150A1F0FF0FBB1F661F03
:10076000771F881FC2F70EC0BA0F621F731F841F46
:1007700048F4879577956795B795F7959E3F08F06C
:10078000B3CF9395880F08F09927EE0F979587952B
:1007900008950CD047C13FD140F036D130F021F45C
:1007A0005F3F19F01AC1511171C12BC14CD198F39F
:1007B0009923C9F35523B1F3951B550BBB27AA27E2
:1007C00062177307840738F09F5F5F4F220F331F54
:1007D000441FAA1FA9F333D00E2E3AF0E0E830D020
:1007E00091505040E695001CCAF729D0FE2F27D023
:1007F000660F771F881FBB1F261737074807AB07F1
:10080000B0E809F0BB0B802DBF01FF2793585F4F65
:100810002AF09E3F510568F0E0C038C15F3FECF31D
:10082000983EDCF3869577956795B795F7959F5F2A
:10083000C9F7880F911D9695879597F90895E1E07E
:10084000660F771F881FBB1F621773078407BA07DD
:1008500020F0621B730B840BBA0BEE1F88F7E09538
:10086000089504D06894B11111C10895F4D088F0AE
:100870009F5790F0B92F9927B751A0F0D1F0660F8C
:10088000771F881F991F1AF0BA95C9F712C0B130A7
:1008900081F0FBD0B1E00895F8C0672F782F88274A
:1008A000B85F39F0B93FCCF3869577956795B395E6
:1008B000D9F73EF490958095709561957F4F8F4F55
:1008C0009F4F0895E89409C097FB3EF4909580955A
:1008D000709561957F4F8F4F9F4F9923A9F0F92F06
:1008E00096E9BB279395F695879577956795B79584
:1008F000F111F8CFFAF4BB0F11F460FF1BC06F5F6A
:100900007F4F8F4F9F4F16C0882311F096E911C07B
:10091000772321F09EE8872F762F05C0662371F09C
:1009200096E8862F70E060E02AF09A95660F771FB0
:10093000881FDAF7880F9695879597F9089564D000
:1009400018F011F068D038F45CC0A0C0E92F7BD05B
:10095000B0F35523C9F3E7FB6217730784079507C4
:10096000A8F199F3E92FFF2788232AF03197660F22
:10097000771F881FDAF7952F5527442332F09150BF
:100980005040220F331F441FD2F7BB27E91BF50B42
:10099000621B730B840BB109C1F222F4620F731F47
:1009A000841FB11D31972AF0660F771F881FBB1F68
:1009B000EFCF915050405AF041F0882332F0660F4B
:1009C000771F881F91505040C1F793950CC08695B2
:1009D000779567959F5FD9F7F8CF97F99F6780E87C
:1009E00070E060E008959F3F31F0915020F48795CA
:1009F00077956795B795880F911D9695879597F987
:100A000008959FEF80EC089500240A9416161706A7
:100A100018060906089500240A94121613061406EF
:100A200005060895092E0394000C11F4882352F052
:100A3000BB0F40F4BF2B11F460FF04C06F5F7F4F0A
:100A40008F4F9F4F089557FD9058440F551F59F0F1
:100A50005F3F71F04795880F97FB991F61F09F3FAB
:100A600079F087950895121613061406551FF2CFD4
:100A70004695F1DF08C0161617061806991FF1CF24
:100A800086957105610508940895E894BB2766274B
:100A90007727CB0197F908950BD0C4CFB5DF28F0A5
:100AA000BADF18F0952309F098CFABCF1124EECF21
:100AB000CADFA0F3959FD1F3950F50E0551F629FB9
:100AC000F001729FBB27F00DB11D639FAA27F00DA7
:100AD000B11DAA1F649F6627B00DA11D661F829FCE
:100AE0002227B00DA11D621F739FB00DA11D621FB3
:100AF000839FA00D611D221F749F3327A00D611DD0
:100B0000231F849F600D211D822F762F6A2F1124B1
:100B10009F5750408AF0E1F088234AF0EE0FFF1F04
:100B2000BB1F661F771F881F91505040A9F79E3F3B
:100B3000510570F052CFAACF5F3FECF3983EDCF343
:100B4000869577956795B795F795E7959F5FC1F778
:100B5000FE2B880F911D9695879597F908959F9381
:100B600005D00F9007FCEE5F28C04BCF74DFE8F391
:100B7000E894E0E0BB279F57F0F02AED3FE049EC16
:100B800006C0EE0FBB0F661F771F881F28F0B23A12
:100B900062077307840728F0B25A620B730B840B49
:100BA000E3959A9572F7803830F49A95BB0F661FDB
:100BB000771F881FD2F7904818CFEF93E0FF06C049
:100BC000A2EA2AED3FE049EC5FEB90DD2BDF0F90CE
:100BD000039401FC9058ECE8F0E000C09F938F93E1
:100BE0007F936F93FF93EF939B01AC0155DFEF91E0
:100BF000FF9105D02F913F914F915F914DCFDF93A2
:100C0000CF931F930F93FF92EF92DF927B018C01A2
:100C1000689405C0DA2EEF014BDFFE01E894A59140
:100C20002591359145915591AEF3EF015FDDFE01C0
:100C30009701A801DA9479F7DF90EF90FF900F9178
:100C40001F91CF91DF910895AA1BBB1B51E107C0F3
:100C5000AA1FBB1FA617B70710F0A61BB70B881F4C
:100C6000991F5A95A9F780959095BC01CD010895DB
:100C700097FF03C09195819591090895F894FFCF4E
:040C8000010000006F
:00000001FF
