:1000000045C0000060C000005EC000005CC0000091
:100010005AC0000058C0000056C0000054C0000084
:1000200052C0000050C000004EC000004CC0000094
:100030004AC00000FFC0000046C0000044C00000ED
:1000400042C0000040C000003EC000003CC00000B4
:100050003AC0000038C0000036C0000034C00000C4
:1000600032C0000030C000002EC000002CC00000D4
:100070002AC0000028C0000026C0000024C00000E4
:1000800022C0000020C000001EC0000011241FBEBE
:10009000CFEFD0E4DEBFCDBF11E0A0E0B1E0E4E9F6
:1000A000F6E000E00BBF02C007900D92A430B1074C
:1000B000D9F72BE0A4E0B1E001C01D92A233B20752
:1000C000E1F703D1E5C29CCFE1ECF0E080818861EB
:1000D00080838EE08093C2008FE18093C4001092F1
:1000E000C50008958AE08093810084E690E09093B3
:1000F00089008093880082E080936F0010928500D1
:10010000109284008091000190910101A091020160
:10011000B091030180930A0190930B01A0930C010D
:10012000B0930D018FB780688FBF08952F923F92D3
:100130004F925F926F927F928F929F92AF92BF92F7
:10014000CF92DF92EF92FF920F931F93CF93DF93A3
:1001500000D000D0CDB7DEB72C01362F272F1A01E3
:1001600080E29EE4B2017AD269837A83E62EF72E8A
:10017000E114F10409F442C0032F122F812C912CB9
:1001800054011C821B82612C712C0F2EF3E3CF2EA5
:10019000DC2CF02DC301B20114D1A5019401FBD1D7
:1001A00020E030E040E85FE3A8D020E030E040E02D
:1001B00050E44BD120E030E040E85FE39DD062D2D4
:1001C0009C012C9DC0012D9D900D3C9D900D1124F6
:1001D000F801819391938F0127E137EB41E558E3D3
:1001E000C501B4018AD04B015C012B813C812F5F9A
:1001F0003F4F3C832B832E153F0561F62981F1018A
:1002000020833A8131830F900F900F900F90DF91F0
:10021000CF911F910F91FF90EF90DF90CF90BF9003
:10022000AF909F908F907F906F905F904F903F9096
:100230002F9008951F920F920FB60F9211240BB6B4
:100240000F922F933F938F939F93EF93FF93E091A0
:100250000601F0910701EE0FFF1FE55EFE4F808162
:1002600091819C01220F331F220F331F820F931F96
:10027000809304019093050188B98091040185B9A8
:100280008091060190910701019690930701809358
:10029000060120910601309107018091080190919B
:1002A00009012817390721F410920701109206015D
:1002B000FF91EF919F918F913F912F910F900BBEE6
:1002C0000F900FBE0F901F9018958FEF84B915B83F
:1002D00087B918B81AB88BB91092070110920601A5
:1002E0001092160148E051E06BE171E084E690E085
:1002F0001DDFEADEF7DEFFCF5058BB27AA270ED05E
:1003000010C101D130F006D120F031F49F3F11F43B
:100310001EF4F6C00EF4E095E7FBDEC0E92F12D123
:1003200080F3BA17620773078407950718F071F412
:100330009EF52AC10EF4E0950B2EBA2FA02D0B01CD
:10034000B90190010C01CA01A0011124FF27591B1A
:1003500099F0593F50F4503E68F11A16F040A22F20
:10036000232F342F4427585FF3CF46953795279591
:10037000A795F0405395C9F77EF41F16BA0B620B90
:10038000730B840BBAF09150A1F0FF0FBB1F661FD7
:10039000771F881FC2F70EC0BA0F621F731F841F1A
:1003A00048F4879577956795B795F7959E3F08F040
:1003B000B3CF9395880F08F09927EE0F97958795FF
:1003C0000895E89409C097FB3EF490958095709548
:1003D00061957F4F8F4F9F4F9923A9F0F92F96E991
:1003E000BB279395F695879577956795B795F11106
:1003F000F8CFFAF4BB0F11F460FF1BC06F5F7F4FA3
:100400008F4F9F4F16C0882311F096E911C07723B4
:1004100021F09EE8872F762F05C0662371F096E8BD
:10042000862F70E060E02AF09A95660F771F881F8C
:10043000DAF7880F9695879597F9089564D018F0A4
:1004400011F068D038F45CC0A0C0E92F7BD0B0F3C5
:100450005523C9F3E7FB6217730784079507A8F1D3
:1004600099F3E92FFF2788232AF03197660F771F2A
:10047000881FDAF7952F5527442332F091505040CA
:10048000220F331F441FD2F7BB27E91BF50B621B5A
:10049000730B840BB109C1F222F4620F731F841F26
:1004A000B11D31972AF0660F771F881FBB1FEFCF52
:1004B000915050405AF041F0882332F0660F771F78
:1004C000881F91505040C1F793950CC08695779541
:1004D00067959F5FD9F7F8CF97F99F6780E870E03D
:1004E00060E008959F3F31F0915020F48795779513
:1004F0006795B795880F911D9695879597F90895FB
:100500009FEF80EC089500240A941616170618062B
:100510000906089500240A94121613061406050607
:100520000895092E0394000C11F4882352F0BB0F98
:1005300040F4BF2B11F460FF04C06F5F7F4F8F4FFB
:100540009F4F089557FD9058440F551F59F05F3F36
:1005500071F04795880F97FB991F61F09F3F79F0E5
:1005600087950895121613061406551FF2CF469567
:10057000F1DF08C0161617061806991FF1CF8695E9
:100580007105610508940895E894BB2766277727CD
:10059000CB0197F908950BD0C4CFB5DF28F0BADFAF
:1005A00018F0952309F098CFABCF1124EECFCADF16
:1005B000A0F3959FD1F3950F50E0551F629FF00176
:1005C000729FBB27F00DB11D639FAA27F00DB11DCF
:1005D000AA1F649F6627B00DA11D661F829F222758
:1005E000B00DA11D621F739FB00DA11D621F839FDF
:1005F000A00D611D221F749F3327A00D611D231FB5
:10060000849F600D211D822F762F6A2F11249F5702
:1006100050408AF0E1F088234AF0EE0FFF1FBB1F25
:10062000661F771F881F91505040A9F79E3F5105C4
:1006300070F052CFAACF5F3FECF3983EDCF3869583
:1006400077956795B795F795E7959F5FC1F7FE2B6F
:10065000880F911D9695879597F90895AA1BBB1B46
:1006600051E107C0AA1FBB1FA617B70710F0A61BB2
:10067000B70B881F991F5A95A9F780959095BC01D3
:10068000CD01089597FF03C0919581959109089533
:04069000F894FFCF0C
:040694000100000061
:00000001FF
