S0120000696F5F68616E646C65722E73726563FD
S113000050C000006BC0000069C0000067C0000061
S113001065C0000063C0000061C000005FC0000054
S11300205DC000005BC0000059C0000057C0000064
S113003055C0000076C0000051C000004FC0000051
S11300404DC000004BC0000049C0000047C0000084
S113005045C0000043C0000041C000003FC0000094
S11300603DC000003BC0000039C0000037C00000A4
S113007035C0000033C0000031C000002FC00000B4
S11300802DC000002BC0000029C00000A302B20252
S11300904D03D902F5029E03FE021A03A1022303B3
S11300A03F0311241FBECFEFD0E4DEBFCDBF11E06C
S11300B0A0E0B1E0E6E7FBE000E00BBF02C0079080
S11300C00D92AE37B107D9F721E0AEE7B1E001C038
S11300D01D92A43AB207E1F74ED34BC591CF8BE002
S11300E0809381008DE790E090938900809388004D
S11300F082E080936F0010928500109284008091BA
S1130100000190910101A0910201B091030180933B
S11301107F0190938001A0938101B0938201789430
S113012008951F920F920FB60F9211248F939F93ED
S1130130AF93BF9380917F0190918001A091810141
S1130140B09182010197A109B10980937F01909335
S11301508001A0938101B0938201892B8A2B8B2B80
S113016099F481E0809383018091000190910101D1
S1130170A0910201B091030180937F0190938001CB
S1130180A0938101B0938201BF91AF919F918F9110
S11301900F900FBE0F901F901895609300017093FD
S11301A00101809302019093030160937F01709396
S11301B08001809381019093820108956091780079
S11301C07091790080E090E03DD420E030E040E0A0
S11301D052E43FD32CEE31E54CE151E49FD306D4F5
S11301E0862F08958F7180937C00000086EA8A959B
S11301F0F1F700C0E3CF08950F931F93CF938C01C1
S1130200C0E0CF5F8C2FEEDFF80181938F01C43003
S1130210C1F7CF911F910F91089580B1809580729D
S11302200895FB01DC019B012C5F3F4F81918D936D
S1130230E217F307D9F70895EF92FF920F931F93F4
S1130240CF93DF93A42FB52FE62EF72EE0E0F0E056
S113025001E010E0B8010E2E02C0660F771F0A9469
S1130260E2F7E901488150E04623572364177507F4
S113027021F4EC0148814C930BC0EC014881E70167
S11302805881541729F04C93E9014881642B688301
S1130290319601961196DFEFED1AFD0AE430F1056F
S11302A0C9F6DF91CF911F910F91FF90EF900895C0
S11302B080E098DF813220F0823420F088E00895D5
S11302C082E0089585E00895181619065CF00895F3
S11302D0000021503109E1F74F5F5F4F8417950704
S11302E019F4089540E050E027E033E0F1CF5F983F
S11302F088B95E9A00005E9882E090E0E5CF0895A8
S113030081E0F5CF0895813118F48158F0CF089534
S11303108155EDCF089584E690E0D6DF88E3E7DFEA
S113032086E0E5DF8FE0E3DF81E0E1DF8AE090E073
S1130330CBCF08955F9A88B95E9A00005E9881E0F9
S113034090E0C2CF08950F931F93CF938C0181E166
S113035090E0D9DFF8018081CDEC8C9F812D1124B0
S113036086958695869590E0C096E4DF82E190E0DC
S1130370CADFF80180818C9F912D11249695969562
S11303809695990F292F220F220F920F891B90E027
S1130390C096D0DF85E190E0B6DFF80181818C9FC3
S11303A0812D112486958695869590E0C096C2DFAE
S11303B086E190E0A8DFF80181818C9FC12D112492
S11303C0C695C695C695CC0F9C2F990F990FC90F4A
S11303D08C1B90E0C096AEDF80E090E094DFCF917C
S11303E01F910F910895DF92EF92FF920F931F9345
S11303F0CF93DF937C0101E110E00F2EFDECDF2EA3
S1130400F02DF701D1917F01C8017DDFDD9DC12D64
S11304101124C695C695C69580E38C0F90E08ADFBB
S1130420C801019670DFCC0F8C2F880F880FC80F7E
S1130430DC1B80E38D0F90E07DDF0C5F1F4F0132EA
S11304401105F9F680E090E05EDFDF91CF911F9116
S11304500F91FF90EF90DF900895EF92FF920F932A
S11304601F93CF93DF9300D01F92CDB7DEB7FC016B
S11304708081813238F483E5898381E48A8387E546
S11304808B8320C0823438F483E5898381E58A83B1
S113049082E58B8317C084E5898382E58A8389E4B6
S11304A08B8310C0C8012FDFF70181917F0190E099
S11304B041DF0F5F1F4F04311105A1F780E090E089
S11304C022DF06C0CE0101967C0101E110E0EACFF3
S11304D00F900F900F90DF91CF911F910F91FF908C
S11304E0EF9008950F931F93CF93DF93182FEB0191
S11304F007DF06DF8881882351F001E0010F812F97
S113050002DF899117DF102F88818111F6CFDF91E7
S1130510CF911F910F9108951F93CF93DF9300D034
S113052000D0CDB7DEB7182FCE01019665DE812F3E
S113053090E08B30910508F0ABC0FC01EA5BFF4F03
S11305400FC319E0FCC081E080939B0110929301DA
S1130550E7E9F1E01082118283E682831382A8DE48
S1130560182F9EC05ADE8111EAC010927E0180913C
S1130570A301863009F4BFC030F4833009F48FC07E
S1130580843049F011C0893009F4CAC08A3049F076
S1130590873051F403C08CDE182F82C089DE182FF7
S11305A07FC086DE182F7CC064E071E081E09ADFB2
S11305B0C6C07EDE823019F07BDE182F71C02DDEBE
S11305C0882309F4BCC083E08093A30169E171E04E
S11305D081E088DFBE016F5F7F4F8FE991E021DE0C
S11305E08BE991E03ADF11E0AAC017DE882309F411
S11305F06DC084E08093A30111E0A1C059DE853071
S113060019F056DE182F4CC008DE882309F497C071
S113061086E08093A3016DE171E081E063DFBE01B8
S11306206F5F7F4F8FE991E0FCDD83E991E08BDE22
S113063011E085C0F2DD882309F45DC087E0809372
S1130640A30111E07CC034DE883019F031DE182FAC
S113065027C0E3DD882309F472C089E08093A301F5
S113066065E271E081E03EDFBE016F5F7F4F8FE99D
S113067091E0D7DD87E991E0B6DE11E060C0CDDD21
S1130680882309F44DC08AE08093A30111E057C088
S113069063E371E081E026DF03C013E001C014E0EE
S11306A0153011F128F4123051F0143079F047C0AC
S11306B0183079F11A30A1F11730E9F040C065E53E
S11306C071E081E00FDF80E01EDE39C02EE731E00B
S11306D04BE951E06FE971E0CE010196ADDD8BE9A4
S11306E091E0BBDE14E02BC064E671E081E0FADE49
S11306F080E009DE24C02EE731E043E951E06FE9F0
S113070071E0CE01019698DD83E991E01CDE17E0EB
S113071016C060E771E081E0E5DE80E0F4DD0FC043
S11307202EE731E047E951E06FE971E0CE0101962F
S113073083DD87E991E057DE1AE001C016E0812FDE
S11307400F900F900F900F90DF91CF911F9108950C
S11307501092830110927F01109280011092810106
S11307601092820110920001109201011092020174
S1130770109203010895CF93DF93CDB7DEB72B9783
S11307800FB6F894DEBF0FBECDBF11B88FEF82B99C
S113079084B915B887B918B88AB91BB8D9DF8BE002
S11307A0FE013196A4E8B1E001900D928A95E1F73B
S11307B0E4E8F1E081E090E0A0E0B0E080839183A0
S11307C0A283B383108614821582168217828CE862
S11307D092E09287818780EE80937A009CDD65E0C9
S11307E070E080E090E0D9DC7ADC04E811E0D80124
S11307F014964D915D916D917C9117978D919D917A
S11308000D90BC91A02D481759076A077B0770F01B
S1130810D8011996ED91FC911A9718968C91099527
S1130820F80180871482158216821782F801848168
S11308309581A681B7810596A11DB11D84839583F9
S1130840A683B78310928301809183018823E1F307
S1130850CECF5058BB27AA270ED048C139D130F08B
S11308603ED120F031F49F3F11F41EF42EC10EF45A
S1130870E095E7FB24C1E92F4AD180F3BA17620758
S113088073078407950718F071F49EF562C10EF49E
S1130890E0950B2EBA2FA02D0B01B90190010C018C
S11308A0CA01A0011124FF27591B99F0593F50F4A4
S11308B0503E68F11A16F040A22F232F342F4427FC
S11308C0585FF3CF469537952795A795F0405395F4
S11308D0C9F77EF41F16BA0B620B730B840BBAF0C4
S11308E09150A1F0FF0FBB1F661F771F881FC2F72F
S11308F00EC0BA0F621F731F841F48F48795779543
S11309006795B795F7959E3F08F0B3CF9395880FF9
S113091008F09927EE0F9795879508950CD0E6C0B7
S1130920DED040F0D5D030F021F45F3F19F0C7C0DD
S1130930511110C1CAC0EBD098F39923C9F35523C0
S1130940B1F3951B550BBB27AA27621773078407BE
S113095038F09F5F5F4F220F331F441FAA1FA9F374
S113096033D00E2E3AF0E0E830D091505040E69566
S1130970001CCAF729D0FE2F27D0660F771F881FC7
S1130980BB1F261737074807AB07B0E809F0BB0BB6
S1130990802DBF01FF2793585F4F2AF09E3F5105DA
S11309A068F08DC0D7C05F3FECF3983EDCF38695CA
S11309B077956795B795F7959F5FC9F7880F911D50
S11309C09695879597F90895E1E0660F771F881F3C
S11309D0BB1F621773078407BA0720F0621B730BEF
S11309E0840BBA0BEE1F88F7E095089598D088F031
S11309F09F5790F0B92F9927B751A0F0D1F0660F07
S1130A00771F881F991F1AF0BA95C9F712C0B13021
S1130A1081F09FD0B1E008959CC0672F782F88277C
S1130A20B85F39F0B93FCCF3869577956795B39560
S1130A30D9F73EF490958095709561957F4F8F4FCF
S1130A409F4F0895E89409C097FB3EF490958095D4
S1130A50709561957F4F8F4F9F4F9923A9F0F92F80
S1130A6096E9BB279395F695879577956795B795FE
S1130A70F111F8CFFAF4BB0F11F460FF1BC06F5FE4
S1130A807F4F8F4F9F4F16C0882311F096E911C0F6
S1130A90772321F09EE8872F762F05C0662371F017
S1130AA096E8862F70E060E02AF09A95660F771F2B
S1130AB0881FDAF7880F9695879597F9089597F91F
S1130AC09F6780E870E060E008959FEF80EC0895F0
S1130AD000240A9416161706180609060895002419
S1130AE00A9412161306140605060895092E039493
S1130AF0000C11F4882352F0BB0F40F4BF2B11F407
S1130B0060FF04C06F5F7F4F8F4F9F4F089557FD65
S1130B109058440F551F59F05F3F71F04795880F67
S1130B2097FB991F61F09F3F79F0879508951216FE
S1130B3013061406551FF2CF4695F1DF08C01616AA
S1130B4017061806991FF1CF86957105610508945B
S1130B500895E894BB2766277727CB0197F9089572
S1130B60EE0FFF1F0024001C0BBE0790F691E02D32
S1090B700994F894FFCF84
S1130B76010000004E4F204241434B205354415440
S1130B864520464F554E44210057415600414D5489
S1130B962052455300412020204420202053202069
S1130BA62052004552524F52206E6F20646566698A
S1130BB66E6564207374617465207472616E736902
S1130BC674696F6E0020204F5343494C4C41544F77
S1130BD652203100202020202046494C5445520002
S1110BE6202020414D504C4946494552000004
S9030000FC
