S0120000696F5F68616E646C65722E73726563FD
S113000045C0000060C000005EC000005CC000008D
S11300105AC0000058C0000056C0000054C0000080
S113002052C0000050C000004EC000004CC0000090
S11300304AC0000025C1000046C0000044C00000C2
S113004042C0000040C000003EC000003CC00000B0
S11300503AC0000038C0000036C0000034C00000C0
S113006032C0000030C000002EC000002CC00000D0
S11300702AC0000028C0000026C0000024C00000E0
S113008022C0000020C000001EC0000011241FBEBA
S1130090CFEFD0E4DEBFCDBF11E0A0E0B1E0E0E0FF
S11300A0F7E000E00BBF02C007900D92A430B10747
S11300B0D9F721E0A4E0B1E001C01D92A431B20758
S11300C0E1F72BD11BC39CCFEAE7F0E08081806E7F
S11300D080830895609178007091790080E090E0C9
S11300E07FD220E030E040E052E481D12CEE31E5D3
S11300F04CE151E4E1D148D2862F089580937C00ED
S113010082E48A95F1F700C0E5CF08950F931F9319
S1130110CF938C01C0E08C2FF1DFF80181938F0124
S1130120CF5FC630C1F7CF911F910F910895181674
S113013019065CF00895000021503109E1F74F5F82
S11301405F4F8417950719F4089540E050E027E0C5
S113015033E0F1CF5F9888B95E9A00005E9882E040
S113016090E0E5CF0895813118F48158F3CF0895D4
S11301708155F0CF089584E690E0D9DF88E3EADF83
S113018086E0E8DF8FE0E6DF81E0E4DF8AE090E00C
S1130190CECF08955F9A88B95E9A00005E9881E098
S11301A090E0C5CF0895CF92DF92EF92FF920F9324
S11301B01F93CF93DF93CDB7DEB72A970FB6F8948A
S11301C0DEBF0FBECDBFCE010196A0DF82B1CE014E
S11301D001966C0102E00F2EFDECEF2EF02DF601DE
S11301E0F1906F018FEF800FBEDFFE9C112D112463
S11301F016951695169580E3810FCCDF802FB3DF1B
S1130200110F812F880F880F180F8F2D811B805D90
S1130210C1DF0C5F063119F780E0A5DF81E02A9683
S11302200FB6F894DEBF0FBECDBFDF91CF911F9103
S11302300F91FF90EF90DF90CF9008958BE0809323
S113024081008AEF90E0909389008093880082E097
S113025080936F00109285001092840080910001B9
S113026090910101A0910201B091030180930401D6
S113027090930501A0930601B09307017894089523
S11302801F920F920FB60F9211248F939F93AF93E7
S1130290BF938091040190910501A0910601B09152
S11302A007010197A109B109809304019093050105
S11302B0A0930601B0930701892B8A2B8B2B99F409
S11302C081E0809308018091000190910101A09147
S11302D00201B09103018093040190930501A0935E
S11302E00601B0930701BF91AF919F918F910F9039
S11302F00FBE0F901F901895609300017093010139
S113030080930201909303016093040170930501AB
S113031080930601909307010895CF93DF93CDB79F
S1130320DEB72B970FB6F894DEBF0FBECDBF11B862
S11303308FEF82B987B918B88AB91BB88BE0FE0170
S11303403196A9E0B1E001900D928A95E1F7E9E0D8
S1130350F1E082E390E0A0E0B0E080839183A283A7
S1130360B3831482158216821782108683ED90E07F
S113037092878187A9DEFFDE65E070E080E090E08F
S1130380BBDF5CDF09E011E0D80114964D915D916B
S11303906D917C9117978D919D910D90BC91A02D9D
S11303A0481759076A077B0770F0D8011996ED9131
S11303B0FC911A9718968C910995F80180871482FC
S11303C0158216821782F80184819581A681B781EE
S11303D08C599F4FAF4FBF4F84839583A683B783B8
S11303E010920801809108018823E1F3CDCF505881
S11303F0BB27AA270ED048C139D130F03ED120F016
S113040031F49F3F11F41EF42EC10EF4E095E7FB86
S113041024C1E92F4AD180F3BA176207730784070E
S1130420950718F071F49EF562C10EF4E0950B2E59
S1130430BA2FA02D0B01B90190010C01CA01A00132
S11304401124FF27591B99F0593F50F4503E68F18D
S11304501A16F040A22F232F342F4427585FF3CFCE
S1130460469537952795A795F0405395C9F77EF49F
S11304701F16BA0B620B730B840BBAF09150A1F0E8
S1130480FF0FBB1F661F771F881FC2F70EC0BA0F6E
S1130490621F731F841F48F4879577956795B795F6
S11304A0F7959E3F08F0B3CF9395880F08F09927EE
S11304B0EE0F9795879508950CD0E6C0DED040F0F6
S11304C0D5D030F021F45F3F19F0C7C0511110C1ED
S11304D0CAC0EBD098F39923C9F35523B1F3951B04
S11304E0550BBB27AA2762177307840738F09F5F51
S11304F05F4F220F331F441FAA1FA9F333D00E2EC0
S11305003AF0E0E830D091505040E695001CCAF72C
S113051029D0FE2F27D0660F771F881FBB1F2617F1
S113052037074807AB07B0E809F0BB0B802DBF01C4
S1130530FF2793585F4F2AF09E3F510568F08DC006
S1130540D7C05F3FECF3983EDCF3869577956795CB
S1130550B795F7959F5FC9F7880F911D9695879575
S113056097F90895E1E0660F771F881FBB1F621794
S113057073078407BA0720F0621B730B840BBA0B52
S1130580EE1F88F7E095089598D088F09F5790F073
S1130590B92F9927B751A0F0D1F0660F771F881FA4
S11305A0991F1AF0BA95C9F712C0B13081F09FD0E3
S11305B0B1E008959CC0672F782F8827B85F39F081
S11305C0B93FCCF3869577956795B395D9F73EF403
S11305D090958095709561957F4F8F4F9F4F0895AB
S11305E0E89409C097FB3EF49095809570956195C9
S11305F07F4F8F4F9F4F9923A9F0F92F96E9BB277F
S11306009395F695879577956795B795F111F8CFFA
S1130610FAF4BB0F11F460FF1BC06F5F7F4F8F4F65
S11306209F4F16C0882311F096E911C0772321F05B
S11306309EE8872F762F05C0662371F096E8862FF3
S113064070E060E02AF09A95660F771F881FDAF74A
S1130650880F9695879597F9089597F99F6780E88D
S113066070E060E008959FEF80EC089500240A9400
S11306701616170618060906089500240A94121679
S11306801306140605060895092E0394000C11F4AC
S1130690882352F0BB0F40F4BF2B11F460FF04C059
S11306A06F5F7F4F8F4F9F4F089557FD9058440FB2
S11306B0551F59F05F3F71F04795880F97FB991FBD
S11306C061F09F3F79F0879508951216130614067A
S11306D0551FF2CF4695F1DF08C016161706180607
S11306E0991FF1CF86957105610508940895E894E2
S11306F0BB2766277727CB0197F90895F894FFCF96
S107070001000000F0
S9030000FC
