:1000000050C000006BC0000069C0000067C0000065
:1000100065C0000063C0000061C000005FC0000058
:100020005DC000005BC0000059C0000057C0000068
:1000300055C0000076C0000051C000004FC0000055
:100040004DC000004BC0000049C0000047C0000088
:1000500045C0000043C0000041C000003FC0000098
:100060003DC000003BC0000039C0000037C00000A8
:1000700035C0000033C0000031C000002FC00000B8
:100080002DC000002BC0000029C00000B501B80140
:100090001C02D201E1012C02EA01F901B3010102C3
:1000A0000F0211241FBECFEFD0E4DEBFCDBF11E0A1
:1000B000A0E0B1E0E0E8F8E000E00BBF02C007908C
:1000C0000D92A632B107D9F721E0A6E2B1E001C056
:1000D0001D92A734B207E1F7D8D1D0C391CF8BE0FE
:1000E000809381008AEF90E090938900809388004C
:1000F00082E080936F0010928500109284008091BE
:10010000000190910101A0910201B091030180933F
:10011000260190932701A0932801B0932901789498
:1001200008951F920F920FB60F9211248F939F93F1
:10013000AF93BF938091260190912701A091280150
:10014000B09129010197A109B109809326019093EB
:100150002701A0932801B0932901892B8A2B8B2B8F
:1001600099F481E080932A0180910001909101012E
:10017000A0910201B0910301809326019093270181
:10018000A0932801B0932901BF91AF919F918F91C6
:100190000F900FBE0F901F90189560930001709301
:1001A00001018093020190930301609326017093F3
:1001B000270180932801909329010895EAE7F0E050
:1001C0008081806E808308956091780070917900BD
:1001D00080E090E0BCD220E030E040E052E4BED1CC
:1001E0002CEE31E54CE151E41ED285D2862F0895E4
:1001F00080937C0082E48A95F1F700C0E5CF0895F2
:1002000080B180958071089580E0F2DF9BEA899F3C
:10021000812D11248695813220F0823420F088E0EF
:10022000089582E0089585E00895181619065CF097
:100230000895000021503109E1F74F5F5F4F8417A7
:10024000950719F4089540E050E027E033E0F1CF3E
:100250005F9888B95E9A00005E9882E090E0E5CFF2
:10026000089581E0F5CF0895813118F48158F0CFD9
:1002700008958155EDCF089584E690E0D6DF88E3B8
:10028000E7DF86E0E5DF8FE0E3DF81E0E1DF8AE0C2
:1002900090E0CBCF08955F9A88B95E9A00005E988F
:1002A00081E090E0C2CF0895DF92EF92FF920F932A
:1002B0001F93CF93DF9301967C0101E110E00F2E95
:1002C000FDECDF2EF02DF701D1917F01C801CCDFCD
:1002D000DD9DC12D1124C695C695C69580E38C0F72
:1002E00090E0D9DFC8010196BFDFCC0F8C2F880FBB
:1002F000880FC80FDC1B80E38D0F90E0CCDF0C5F14
:100300001F4F01321105F9F680E090E0ADDFDF917B
:10031000CF911F910F91FF90EF90DF9008950F9371
:100320001F93CF93DF93182FEB019BDF88818823E6
:1003300051F001E0010F812F97DF8991ACDF102F81
:1003400088818111F6CFDF91CF911F910F91089590
:10035000CF93C82F90E08B30910508F068C0FC0166
:10036000EA5BFF4F82C2C9E07AC04EDFC82F65C08A
:1003700047DF811174C080914601833009F46AC05F
:10038000843019F441DFC82F58C0863009F466C0A4
:10039000873019F439DFC82F50C089E080934601B7
:1003A000CAE05DC031DF823019F02EDFC82F45C0B2
:1003B00027DF882309F453C083E080934601C1E01E
:1003C0004EC01EDF882309F445C084E080934601B7
:1003D000C1E045C019DF853019F016DFC82F2DC0E8
:1003E0000FDF882309F43BC087E080934601C1E01A
:1003F00036C006DF882399F187E080934601C1E08B
:100400002EC002DF883019F0FFDEC82F16C0F8DEDC
:10041000882329F189E080934601C1E020C0F0DE05
:100420008823E9F08AE080934601C1E018C064E0C7
:1004300071E081E074DF01C0C3E0C23019F0C43064
:1004400029F00DC068E171E081E069DF86E391E0A9
:100450002BDF05C0C4E0FACFC6E001C0C7E08C2F97
:10046000CF91089510922A0110922601109227012F
:10047000109228011092290110920001109201019E
:1004800010920201109203010895CF93DF93CDB72C
:10049000DEB72B970FB6F894DEBF0FBECDBF11B8F5
:1004A0008FEF82B987B918B88AB91BB8DBDF8BE048
:1004B000FE013196ABE2B1E001900D928A95E1F731
:1004C000EBE2F1E082E390E0A0E0B0E08083918392
:1004D000A283B383148215821682178288EA91E080
:1004E000928781876BDEC8DE65E070E080E090E097
:1004F00054DEF5DD0BE211E0D80114964D915D91CB
:100500006D917C9117978D919D910D90BC91A02D2F
:10051000481759076A077B0770F0D8011996ED91C3
:10052000FC911A9718968C910995F801808714828E
:10053000158216821782F80184819581A681B78180
:100540000596A11DB11D84839583A683B783109260
:100550002A0180912A018823E1F3CECF5058BB278E
:10056000AA270ED048C139D130F03ED120F031F465
:100570009F3F11F41EF42EC10EF4E095E7FB24C159
:10058000E92F4AD180F3BA176207730784079507EA
:1005900018F071F49EF562C10EF4E0950B2EBA2F9F
:1005A000A02D0B01B90190010C01CA01A001112479
:1005B000FF27591B99F0593F50F4503E68F11A1625
:1005C000F040A22F232F342F4427585FF3CF4695B6
:1005D00037952795A795F0405395C9F77EF41F16D8
:1005E000BA0B620B730B840BBAF09150A1F0FF0FA2
:1005F000BB1F661F771F881FC2F70EC0BA0F621F8E
:10060000731F841F48F4879577956795B795F7957D
:100610009E3F08F0B3CF9395880F08F09927EE0F0F
:100620009795879508950CD0E6C0DED040F0D5D0E0
:1006300030F021F45F3F19F0C7C0511110C1CAC09A
:10064000EBD098F39923C9F35523B1F3951B550BC0
:10065000BB27AA2762177307840738F09F5F5F4F95
:10066000220F331F441FAA1FA9F333D00E2E3AF0D6
:10067000E0E830D091505040E695001CCAF729D0F0
:10068000FE2F27D0660F771F881FBB1F261737073F
:100690004807AB07B0E809F0BB0B802DBF01FF276F
:1006A00093585F4F2AF09E3F510568F08DC0D7C028
:1006B0005F3FECF3983EDCF3869577956795B795A9
:1006C000F7959F5FC9F7880F911D9695879597F9C4
:1006D0000895E1E0660F771F881FBB1F621773073D
:1006E0008407BA0720F0621B730B840BBA0BEE1F52
:1006F00088F7E095089598D088F09F5790F0B92F2B
:100700009927B751A0F0D1F0660F771F881F991F66
:100710001AF0BA95C9F712C0B13081F09FD0B1E09C
:1007200008959CC0672F782F8827B85F39F0B93FAC
:10073000CCF3869577956795B395D9F73EF4909568
:100740008095709561957F4F8F4F9F4F0895E894E6
:1007500009C097FB3EF490958095709561957F4F09
:100760008F4F9F4F9923A9F0F92F96E9BB279395B7
:10077000F695879577956795B795F111F8CFFAF4C7
:10078000BB0F11F460FF1BC06F5F7F4F8F4F9F4FF8
:1007900016C0882311F096E911C0772321F09EE856
:1007A000872F762F05C0662371F096E8862F70E0BC
:1007B00060E02AF09A95660F771F881FDAF7880F96
:1007C0009695879597F9089597F99F6780E870E067
:1007D00060E008959FEF80EC089500240A941616B7
:1007E000170618060906089500240A94121613061F
:1007F000140605060895092E0394000C11F48823AD
:1008000052F0BB0F40F4BF2B11F460FF04C06F5FC8
:100810007F4F8F4F9F4F089557FD9058440F551F9E
:1008200059F05F3F71F04795880F97FB991F61F072
:100830009F3F79F087950895121613061406551FE9
:10084000F2CF4695F1DF08C0161617061806991F55
:10085000F1CF86957105610508940895E894BB274A
:1008600066277727CB0197F90895EE0FFF1F002425
:10087000001C0BBE0790F691E02D0994F894FFCF71
:10088000010000004552524F522064656661756C4C
:1008900074207374617465004F5343494C4C415448
:0608A0004F522031000060
:00000001FF
