:1000000050C000006BC0000069C0000067C0000065
:1000100065C0000063C0000061C000005FC0000058
:100020005DC000005BC0000059C0000057C0000068
:1000300055C0000076C0000051C000004FC0000055
:100040004DC000004BC0000049C0000047C0000088
:1000500045C0000043C0000041C000003FC0000098
:100060003DC000003BC0000039C0000037C00000A8
:1000700035C0000033C0000031C000002FC00000B8
:100080002DC000002BC0000029C000005F026B02E1
:10009000F2029002A6022803AF02C5025D02CE0260
:1000A000E40211241FBECFEFD0E4DEBFCDBF11E0CC
:1000B000A0E0B1E0E6E8FAE000E00BBF02C0079084
:1000C0000D92AE37B107D9F721E0AEE7B1E001C03C
:1000D0001D92AF39B207E1F7D8D2D3C491CF8BE0EC
:1000E000809381008AEF90E090938900809388004C
:1000F00082E080936F0010928500109284008091BE
:10010000000190910101A0910201B091030180933F
:100110007E0190937F01A0938001B0938101789438
:1001200008951F920F920FB60F9211248F939F93F1
:10013000AF93BF9380917E0190917F01A091800148
:10014000B09181010197A109B10980937E0190933B
:100150007F01A0938001B0938101892B8A2B8B2B87
:1001600099F481E0809382018091000190910101D6
:10017000A0910201B091030180937E0190937F01D1
:10018000A0938001B0938101BF91AF919F918F9116
:100190000F900FBE0F901F90189560930001709301
:1001A0000101809302019093030160937E0170939B
:1001B0007F0180938001909381010895EAE7F0E048
:1001C0008081806E808308956091780070917900BD
:1001D00080E090E0BFD320E030E040E052E4C1D2C4
:1001E0002CEE31E54CE151E421D388D3862F0895DC
:1001F00080937C0086EA8A95F1F700C0E5CF0895E8
:100200000F931F93CF938C01C0E0CF5F8C2FF0DF53
:10021000F80181938F01C430C1F7CF911F910F91E5
:10022000089580B180958072089580E0E1DF813289
:1002300020F0823420F088E0089582E0089585E07F
:100240000895181619065CF0089500002150310930
:10025000E1F74F5F5F4F8417950719F4089540E069
:1002600050E027E033E0F1CF5F9888B95E9A000054
:100270005E9882E090E0E5CF089581E0F5CF0895A3
:10028000813118F48158F0CF08958155EDCF08954C
:1002900084E690E0D6DF88E3E7DF86E0E5DF8FE005
:1002A000E3DF81E0E1DF8AE090E0CBCF08955F9A61
:1002B00088B95E9A00005E9881E090E0C2CF089510
:1002C0000F931F93CF938C0181E190E0D9DFF80168
:1002D0008081CDEC8C9F812D112486958695869505
:1002E00090E0C096E4DF82E190E0CADFF80180810F
:1002F0008C9F912D1124969596959695990F292F5F
:10030000220F220F920F891B90E0C096D0DF85E16B
:1003100090E0B6DFF80181818C9F812D11248695B4
:100320008695869590E0C096C2DF86E190E0A8DFD2
:10033000F80181818C9FC12D1124C695C695C69563
:10034000CC0F9C2F990F990FC90F8C1B90E0C09672
:10035000AEDF80E090E094DFCF911F910F91089580
:10036000DF92EF92FF920F931F93CF93DF937C0165
:1003700001E110E00F2EFDECDF2EF02DF701D19101
:100380007F01C8017DDFDD9DC12D1124C695C69575
:10039000C69580E38C0F90E08ADFC801019670DF7C
:1003A000CC0F8C2F880F880FC80FDC1B80E38D0FBC
:1003B00090E07DDF0C5F1F4F01321105F9F680E000
:1003C00090E05EDFDF91CF911F910F91FF90EF9052
:1003D000DF900895EF92FF920F931F93CF93DF93D7
:1003E00000D01F92CDB7DEB7FC018081813238F496
:1003F00083E5898381E48A8387E58B8320C0823407
:1004000038F483E5898381E58A8382E58B8317C08D
:1004100084E5898382E58A8389E48B8310C0C801DF
:100420002FDFF70181917F0190E041DF0F5F1F4FC8
:1004300004311105A1F780E090E022DF06C0CE0173
:1004400001967C0101E110E0EACF0F900F900F9030
:10045000DF91CF911F910F91FF90EF9008950F932F
:100460001F93CF93DF93182FEB0107DF8881882339
:1004700051F001E0010F812F03DF899118DF102F68
:1004800088818111F6CFDF91CF911F910F9108954F
:100490001F93CF93DF9300D000D0CDB7DEB7182FD6
:1004A000CE010196ADDE812F90E08B30910508F0F2
:1004B00094C0FC01EA5BFF4FDBC219E0CAC0EAE965
:1004C000F1E081E0808383E6818382E0828313828E
:1004D000ACDE182F8AC0A5DE8111BBC080919E01C1
:1004E000863009F4A4C030F4833009F47DC0843030
:1004F00049F011C0893009F4A6C08A3049F087302C
:1005000051F403C092DE182F70C08FDE182F6DC01B
:100510008CDE182F6AC064E071E081E0A0DF99C032
:1005200084DE823019F081DE182F5FC07ADE8823E6
:1005300009F48FC083E080939E0169E171E081E05E
:100540008EDFCE01019646DF11E083C06ADE88238C
:1005500009F461C084E080939E0111E07AC065DEF9
:10056000853019F062DE182F40C05BDE882309F465
:1005700070C086E080939E016DE171E081E06FDFE5
:10058000CE0101969DDE11E064C04BDE882309F4A4
:100590004EC087E080939E0111E05BC046DE88304C
:1005A00019F043DE182F21C03CDE882309F451C026
:1005B00089E080939E0165E271E081E050DFCE0129
:1005C0000196CEDE11E045C02CDE882309F43BC045
:1005D0008AE080939E0111E03CC063E371E081E01A
:1005E0003EDF03C013E001C014E01530C9F028F469
:1005F000123051F0143079F02CC01830E9F01A3074
:1006000011F11730A1F025C065E571E081E027DF29
:1006100080E036DE1EC0CE010196DCDE14E019C09B
:1006200064E671E081E01BDF80E02ADE12C0CE01CB
:10063000019646DE17E00DC060E771E081E00FDF54
:1006400080E01EDE06C0CE0101968ADE1AE001C0FF
:1006500016E0812F0F900F900F900F90DF91CF91A8
:100660001F9108951092820110927E0110927F01D5
:1006700010928001109281011092000110920101EC
:1006800010920201109203010895CF93DF93CDB72A
:10069000DEB72B970FB6F894DEBF0FBECDBF11B8F3
:1006A0008FEF82B984B915B887B918B88AB91BB861
:1006B000D9DF8BE0FE013196A3E8B1E001900D9205
:1006C0008A95E1F7E3E8F1E085E090E0A0E0B0E0B2
:1006D00080839183A283B38310861482158216824D
:1006E000178288E492E09287818768DDD1DD65E03A
:1006F00070E080E090E051DDF2DC03E811E0D80129
:1007000014964D915D916D917C9117978D919D916E
:100710000D90BC91A02D481759076A077B0770F010
:10072000D8011996ED91FC911A9718968C9109951C
:10073000F80180871482158216821782F80184815D
:100740009581A681B7810596A11DB11D84839583EE
:10075000A683B78310928201809182018823E1F3FE
:10076000CECF5058BB27AA270ED048C139D130F080
:100770003ED120F031F49F3F11F41EF42EC10EF44F
:10078000E095E7FB24C1E92F4AD180F3BA1762074D
:1007900073078407950718F071F49EF562C10EF493
:1007A000E0950B2EBA2FA02D0B01B90190010C0181
:1007B000CA01A0011124FF27591B99F0593F50F499
:1007C000503E68F11A16F040A22F232F342F4427F1
:1007D000585FF3CF469537952795A795F0405395E9
:1007E000C9F77EF41F16BA0B620B730B840BBAF0B9
:1007F0009150A1F0FF0FBB1F661F771F881FC2F724
:100800000EC0BA0F621F731F841F48F48795779537
:100810006795B795F7959E3F08F0B3CF9395880FEE
:1008200008F09927EE0F9795879508950CD0E6C0AC
:10083000DED040F0D5D030F021F45F3F19F0C7C0D2
:10084000511110C1CAC0EBD098F39923C9F35523B5
:10085000B1F3951B550BBB27AA27621773078407B3
:1008600038F09F5F5F4F220F331F441FAA1FA9F369
:1008700033D00E2E3AF0E0E830D091505040E6955B
:10088000001CCAF729D0FE2F27D0660F771F881FBC
:10089000BB1F261737074807AB07B0E809F0BB0BAB
:1008A000802DBF01FF2793585F4F2AF09E3F5105CF
:1008B00068F08DC0D7C05F3FECF3983EDCF38695BF
:1008C00077956795B795F7959F5FC9F7880F911D45
:1008D0009695879597F90895E1E0660F771F881F31
:1008E000BB1F621773078407BA0720F0621B730BE4
:1008F000840BBA0BEE1F88F7E095089598D088F026
:100900009F5790F0B92F9927B751A0F0D1F0660FFB
:10091000771F881F991F1AF0BA95C9F712C0B13016
:1009200081F09FD0B1E008959CC0672F782F882771
:10093000B85F39F0B93FCCF3869577956795B39555
:10094000D9F73EF490958095709561957F4F8F4FC4
:100950009F4F0895E89409C097FB3EF490958095C9
:10096000709561957F4F8F4F9F4F9923A9F0F92F75
:1009700096E9BB279395F695879577956795B795F3
:10098000F111F8CFFAF4BB0F11F460FF1BC06F5FD9
:100990007F4F8F4F9F4F16C0882311F096E911C0EB
:1009A000772321F09EE8872F762F05C0662371F00C
:1009B00096E8862F70E060E02AF09A95660F771F20
:1009C000881FDAF7880F9695879597F9089597F914
:1009D0009F6780E870E060E008959FEF80EC0895E5
:1009E00000240A941616170618060906089500240E
:1009F0000A9412161306140605060895092E039488
:100A0000000C11F4882352F0BB0F40F4BF2B11F4FB
:100A100060FF04C06F5F7F4F8F4F9F4F089557FD5A
:100A20009058440F551F59F05F3F71F04795880F5C
:100A300097FB991F61F09F3F79F0879508951216F3
:100A400013061406551FF2CF4695F1DF08C016169F
:100A500017061806991FF1CF869571056105089450
:100A60000895E894BB2766277727CB0197F9089567
:100A7000EE0FFF1F0024001C0BBE0790F691E02D27
:060A80000994F894FFCF79
:100A8600010000004E4F204241434B205354415435
:100A96004520464F554E44210057415600414D547E
:100AA600205245530041202020442020205320205E
:100AB6002052004552524F52206E6F20646566697F
:100AC6006E6564207374617465207472616E7369F7
:100AD60074696F6E0020204F5343494C4C41544F6C
:100AE60052203100202020202046494C54455200F7
:0E0AF600202020414D504C49464945520000F9
:00000001FF
