:1000000045C0000060C000005EC000005CC0000091
:100010005AC0000058C0000056C0000054C0000084
:1000200052C0000050C000004EC000004CC0000094
:100030004AC0000065C0000046C0000044C0000087
:1000400042C0000040C000003EC000003CC00000B4
:100050003AC0000038C0000036C0000034C00000C4
:1000600032C0000030C000002EC000002CC00000D4
:100070002AC0000028C0000026C0000024C00000E4
:1000800022C0000020C000001EC0000011241FBEBE
:10009000CFEFD0E4DEBFCDBF11E0A0E0B1E0ECE8EF
:1000A000F5E000E00BBF02C007900D92A030B10751
:1000B000D9F721E0A0E0B1E001C01D92A530B20760
:1000C000E1F77FD061C29CCF89E0809381008DE70A
:1000D00090E0909389008093880082E080936F0085
:1000E000109285001092840010920001109201017C
:1000F00010920201109203018FB780688FBF08959C
:100100001F920F920FB60F9211248F939F93AF936C
:10011000BF938091000190910101A0910201B091E3
:1001200003010196A11DB11D80930001909301016F
:10013000A0930201B0930301BF91AF919F918F9162
:100140000F900FBE0F901F901895CF92DF92EF92F5
:10015000FF920F931F93CF93DF93EC018C01005F0D
:10016000184DC12CD12C760120E030E0A901C70147
:10017000B60165D020E030E040E85FE3FCD020E04D
:1001800030E040EA50E49DD120E03CEC4CE456E401
:1001900098D1B9D06993799327E137EB41E559E3D9
:1001A000C701B6014CD06B017C01C017D107E1F645
:1001B000DF91CF911F910F91FF90EF90DF90CF9043
:1001C0000895CF93DF93CDB7DEB7C051D7420FB6B6
:1001D000F894DEBF0FBECDBF8FEF81B912B884B9DE
:1001E00015B887B918B8CE010196AFDF6DDF8091E1
:1001F000000190910101A0910201B09103018436A8
:100200009105A105B10540F0109200011092010185
:10021000109202011092030112B815B880910001EA
:1002200090910101A0910201B091030188B98091E0
:1002300004018823E1F310920401D9CF5058BB2761
:10024000AA270ED004C1F5D030F0FAD020F031F456
:100250009F3F11F41EF4EAC00EF4E095E7FBD2C014
:10026000E92F06D180F3BA17620773078407950751
:1002700018F071F49EF51EC10EF4E0950B2EBA2F06
:10028000A02D0B01B90190010C01CA01A00111249C
:10029000FF27591B99F0593F50F4503E68F11A1648
:1002A000F040A22F232F342F4427585FF3CF4695D9
:1002B00037952795A795F0405395C9F77EF41F16FB
:1002C000BA0B620B730B840BBAF09150A1F0FF0FC5
:1002D000BB1F661F771F881FC2F70EC0BA0F621FB1
:1002E000731F841F48F4879577956795B795F795A1
:1002F0009E3F08F0B3CF9395880F08F09927EE0F33
:1003000097958795089504D06894B111D4C0089545
:10031000B7D088F09F5790F0B92F9927B751A0F028
:10032000D1F0660F771F881F991F1AF0BA95C9F789
:1003300012C0B13081F0BED0B1E00895BBC0672FCC
:10034000782F8827B85F39F0B93FCCF38695779539
:100350006795B395D9F73EF4909580957095619522
:100360007F4F8F4F9F4F089564D018F011F068D0E1
:1003700038F45CC0A0C0E92F7BD0B0F35523C9F39B
:10038000E7FB6217730784079507A8F199F3E92F34
:10039000FF2788232AF03197660F771F881FDAF727
:1003A000952F5527442332F091505040220F331F90
:1003B000441FD2F7BB27E91BF50B621B730B840BA1
:1003C000B109C1F222F4620F731F841FB11D31976E
:1003D0002AF0660F771F881FBB1FEFCF9150504048
:1003E0005AF041F0882332F0660F771F881F915032
:1003F0005040C1F793950CC08695779567959F5FA0
:10040000D9F7F8CF97F99F6780E870E060E008952A
:100410009F3F31F0915020F4879577956795B79578
:10042000880F911D9695879597F908959FEF80EC19
:10043000089500240A94161617061806090608954A
:1004400000240A9412161306140605060895092EB0
:100450000394000C11F4882352F0BB0F40F4BF2B1F
:1004600011F460FF04C06F5F7F4F8F4F9F4F08955F
:1004700057FD9058440F551F59F05F3F71F0479555
:10048000880F97FB991F61F09F3F79F0879508953A
:10049000121613061406551FF2CF4695F1DF08C059
:1004A000161617061806991FF1CF86957105610576
:1004B00008940895E894BB2766277727CB0197F91E
:1004C00008950BD0C4CFB5DF28F0BADF18F095231C
:1004D00009F098CFABCF1124EECFCADFA0F3959FE0
:1004E000D1F3950F50E0551F629FF001729FBB271B
:1004F000F00DB11D639FAA27F00DB11DAA1F649FC7
:100500006627B00DA11D661F829F2227B00DA11D79
:10051000621F739FB00DA11D621F839FA00D611DFF
:10052000221F749F3327A00D611D231F849F600D20
:10053000211D822F762F6A2F11249F5750408AF059
:10054000E1F088234AF0EE0FFF1FBB1F661F771FE5
:10055000881F91505040A9F79E3F510570F052CF2F
:10056000AACF5F3FECF3983EDCF3869577956795CD
:10057000B795F795E7959F5FC1F7FE2B880F911D03
:0C0580009695879597F90895F894FFCFA1
:00000001FF
