S0210000506F74656E74696F6D657465724D756C7469706C6578696E672E7372656392
S113000045C0000060C000005EC000005CC000008D
S11300105AC0000058C0000056C0000054C0000080
S113002052C0000050C000004EC000004CC0000090
S11300304AC00000C5C0000046C0000044C0000023
S113004042C0000040C000003EC000003CC00000B0
S11300503AC0000038C0000036C0000034C00000C0
S113006032C0000030C000002EC000002CC00000D0
S11300702AC0000028C0000026C0000024C00000E0
S113008022C0000020C000001EC0000011241FBEBA
S1130090CFEFD0E4DEBFCDBF11E0A0E0B1E0E2E7F6
S11300A0F6E000E00BBF02C007900D92A231B10749
S11300B0D9F721E0A2E1B1E001C01D92A731B20756
S11300C0E1F7E4D0D4C29CCF181619065CF0089569
S11300D0000021503109E1F74F5F5F4F8417950706
S11300E019F4089540E050E027E033E0F1CF5F9841
S11300F088B95E9A00005E9882E090E0E5CF0895AA
S113010081E0F5CF0895813118F48158F0CF089536
S11301108155EDCF089584E690E0D6DF88E3E7DFEC
S113012086E0E5DF8FE0E3DF81E0E1DF8AE090E075
S1130130CBCF08955F9A88B95E9A00005E9881E0FB
S113014090E0C2CF08950F931F93CF93DF93182F9E
S1130150EB01D6DF8881882351F001E0010F812F64
S1130160D2DF8991E7DF102F88818111F6CFDF91EB
S1130170CF911F910F9108958BE0809381008DE7BB
S113018090E0909389008093880082E080936F00D0
S113019010928500109284008091000190910101D9
S11301A0A0910201B0910301809312019093130175
S11301B0A0931401B09315018FB780688FBF089581
S11301C01F920F920FB60F9211248F939F93AF93A8
S11301D0BF938091120190911301A0911401B091E9
S11301E015010197A109B10980931201909313019C
S11301F0A0931401B0931501892B8A2B8B2B99F4AE
S113020081E0809316018091000190910101A091F9
S11302100201B09103018093120190931301A09302
S11302201401B0931501BF91AF919F918F910F90DD
S11302300FBE0F901F9018956093000170930101F9
S11302408093020190930301609312017093130150
S113025080931401909315010895EAE7F0E08081FA
S1130260806E80830895609178007091790080E0B9
S113027090E06FD120E030E040E052E471D02CEE09
S113028031E54CE151E4D1D038C10895CF93DF93E7
S113029000D000D0CDB7DEB711B88FEF82B987B9DF
S11302A018B88AB91BB8D9DF19821A821B821C823A
S11302B06AE070E080E090E0BFDF5EDF2CDF64E0A6
S11302C071E081E040DF81E080937C0010E00F2E3C
S11302D0FDECAF2EF02D0F2EFCE7CF2ED12CF02D00
S11302E0C2DFB62EE12EF12CE1E0F0E0EC0FFD1FB1
S11302F0EE0DFF1D8081B81621F1912E990C990CF9
S113030081E1890D00DFBA9C012D11240695069523
S1130310069580E3800F0EDF82E1890DF4DE000F85
S1130320802F880F880F080F8B2D801B805D02DFC4
S113033080E0E9DEE1E0F0E0EC0FFD1FEE0DFF1DD3
S1130340B0821F5F143008F010E081E0810FF601E5
S11303508083809116018823E1F310921601C0CFA7
S11303605058BB27AA270ED048C139D130F03ED10E
S113037020F031F49F3F11F41EF42EC10EF4E095E9
S1130380E7FB24C1E92F4AD180F3BA176207730748
S11303908407950718F071F49EF562C10EF4E09598
S11303A00B2EBA2FA02D0B01B90190010C01CA012B
S11303B0A0011124FF27591B99F0593F50F4503ED6
S11303C068F11A16F040A22F232F342F4427585FC8
S11303D0F3CF469537952795A795F0405395C9F7E0
S11303E07EF41F16BA0B620B730B840BBAF0915098
S11303F0A1F0FF0FBB1F661F771F881FC2F70EC037
S1130400BA0F621F731F841F48F487957795679509
S1130410B795F7959E3F08F0B3CF9395880F08F0F2
S11304209927EE0F9795879508950CD0E6C0DED0F6
S113043040F0D5D030F021F45F3F19F0C7C051111E
S113044010C1CAC0EBD098F39923C9F35523B1F373
S1130450951B550BBB27AA2762177307840738F02F
S11304609F5F5F4F220F331F441FAA1FA9F333D08E
S11304700E2E3AF0E0E830D091505040E695001C42
S1130480CAF729D0FE2F27D0660F771F881FBB1FFE
S1130490261737074807AB07B0E809F0BB0B802DD8
S11304A0BF01FF2793585F4F2AF09E3F510568F024
S11304B08DC0D7C05F3FECF3983EDCF3869577950B
S11304C06795B795F7959F5FC9F7880F911D969526
S11304D0879597F90895E1E0660F771F881FBB1F82
S11304E0621773078407BA0720F0621B730B840B2F
S11304F0BA0BEE1F88F7E095089598D088F09F57BF
S113050090F0B92F9927B751A0F0D1F0660F771F5B
S1130510881F991F1AF0BA95C9F712C0B13081F03B
S11305209FD0B1E008959CC0672F782F8827B85FCB
S113053039F0B93FCCF3869577956795B395D9F79C
S11305403EF490958095709561957F4F8F4F9F4FA6
S11305500895E89409C097FB3EF4909580957095B2
S113056061957F4F8F4F9F4F9923A9F0F92F96E9FB
S1130570BB279395F695879577956795B795F11170
S1130580F8CFFAF4BB0F11F460FF1BC06F5F7F4F0D
S11305908F4F9F4F16C0882311F096E911C077231F
S11305A021F09EE8872F762F05C0662371F096E828
S11305B0862F70E060E02AF09A95660F771F881FF7
S11305C0DAF7880F9695879597F9089597F99F67B5
S11305D080E870E060E008959FEF80EC08950024C7
S11305E00A941616170618060906089500240A9494
S11305F012161306140605060895092E0394000C1A
S113060011F4882352F0BB0F40F4BF2B11F460FFA8
S113061004C06F5F7F4F8F4F9F4F089557FD9058D1
S1130620440F551F59F05F3F71F04795880F97FBB2
S1130630991F61F09F3F79F087950895121613066C
S11306401406551FF2CF4695F1DF08C0161617069B
S11306501806991FF1CF86957105610508940895D0
S1130660E894BB2766277727CB0197F90895F89478
S1050670FFCFB6
S1130672010000004120202044202020532020207B
S1050682520020
S9030000FC
